:100000000C946A000C9492000C9492000C94920050
:100010000C9492000C9492000C9492000C94B000FA
:100020000C9492000C9492000C9492000C94920008
:100030000C9492000C9492000C9492000C949200F8
:100040000C9468170C9492000C944A1A0C947C1A25
:100050000C9492000C9492000C9492000C949200D8
:100060000C9492000C949200000000080002010021
:100070000003040700000000000000000102040863
:100080001020408001020408102001020408102002
:10009000040404040404040402020202020203032E
:1000A00003030303000000002300260029000000D2
:1000B0000000250028002B0000000000240027007D
:1000C0002A0018026302D206B308490AA90CD01606
:1000D000AC1A4A1B11241FBECFEFD8E0DEBFCDBF44
:1000E00013E0A0E0B1E0E6EEF0E402C005900D926E
:1000F000A837B107D9F727E0A8E7B3E001C01D9200
:10010000AB38B207E1F710E0C4EDD0E004C02297AD
:10011000FE010E94EA1DC23CD107C9F70E945A1B8A
:100120000C9471200C9400006093790310927B036F
:100130000895F89482E08093B0008093B10094E633
:100140009093B3001092B2008093700078948093E3
:10015000780310927C038091790360E00C946D1811
:100160001F920F920FB60F9211242F933F934F932C
:100170005F936F937F938F939F93AF93BF93EF930F
:10018000FF93809179030E94DC1820917D033091C8
:100190007E032F5F3F4F30937E0320937D0390912A
:1001A0007C03953618F096E090937803909178034D
:1001B0009430C9F128F4923069F09330D1F05EC0E8
:1001C000953009F451C0963009F058C091E09093F1
:1001D000490451C0811152C020917D0330917E03AA
:1001E0002436310508F442C01092490410927C0371
:1001F0001CC0813009F042C0E0917C0391E09E0F69
:1002000090937C03F0E020917D0330917E03EE0F0C
:10021000FF1FE858FC4F3087278310927E0310920F
:100220007D0394E029C0811117C0E0917C0391E027
:100230009E0F90937C03F0E020917D0330917E032C
:10024000EE0FFF1FE858FC4F3087278310927E0384
:1002500010927D0393E010C020917D0330917E03C6
:100260002536310558F007C0811108C010927E0371
:1002700010927D0303C095E09093780390917B03E7
:100280009923B9F081110AC080917A03882321F063
:1002900080917A0361E009C02D9A0BC080917A03A6
:1002A000882331F080917A0360E00E94A61801C093
:1002B0002D98FF91EF91BF91AF919F918F917F9179
:1002C0006F915F914F913F912F910F900FBE0F90C3
:1002D0001F901895CF93DF93EB011092700061E0AF
:1002E00083E00E946D1860E083E00E94A6189E01E2
:1002F000442737FD4095542F60E47FE180E090E093
:100300000E94C91D81E08093B00089E08093B10014
:100310002093B3008BEA289F212D1124269520934A
:10032000B400DF91CF9108958F929F92AF92BF92C8
:10033000CF92DF92EF92FF926A017B014530510527
:100340006105710500F10E94BE174B015C0184E05C
:10035000C81AD108E108F108C80CD91CEA1CFB1C1A
:10036000C814D904EA04FB0438F40E94BE178616A8
:100370009706A806B906C8F30E94BE176C157D053E
:100380008E059F05C8F3FF90EF90DF90CF90BF9050
:10039000AF909F908F9008952091B000206220939D
:1003A000B0006115710529F0AB0160E070E00C94BC
:1003B000940108952091B0002F7D2093B000611525
:1003C000710529F0AB0160E070E00C949401089590
:1003D000CF92DF92EF92FF920F931F93CF93DF9311
:1003E0007C018B016A01B9010E946A01E80100E009
:1003F00010E00C151D0571F068817981C70100FFBF
:1004000003C00E94DA0102C00E94CC010F5F1F4F9F
:100410002296EFCF8091B0008F7D8093B000DF9166
:10042000CF911F910F91FF90EF90DF90CF900895A3
:100430000F9300E020E040E060E08AE494E00E9456
:10044000331B0F910895FB014281538164817581B3
:10045000FC01428353836483758317821682089557
:10046000FB0120E080E090E06AE03191332309F164
:1004700070ED730F7A3080F4DC016A9FC0016B9FCE
:10048000900D1124C097830F911D37FD9A958F3FD2
:10049000910559F350F314C03E3291F4233081F0AA
:1004A000DA01A20FB11D12968C932F5F80E090E0CD
:1004B000DCCF233029F4FA01858381E090E00895B0
:1004C00080E090E008950F9300E020E040E060E0DD
:1004D00080E594E00E94331B0F910895AF92BF9284
:1004E000CF92DF92EF92FF920F931F93CF93DF9300
:1004F00000D000D01F92CDB7DEB78C017B010E94E7
:10050000B217F801778366837627672776277A8381
:100510006983085F1F4F42E050E0BE016F5F7F4F6D
:10052000C8010E94AB0A81E090E09C838B8342E08B
:1005300050E0BE016D5F7F4FC8010E94AB0A80E0B2
:1005400091E09C838B8342E050E0BE016D5F7F4F62
:10055000C8010E94AB0A1C821B8242E050E0BE012F
:100560006D5F7F4FC8010E94AB0A42E050E0BE01C0
:100570006D5F7F4FC8010E94AB0A42E050E0BE01B0
:100580006D5F7F4FC8010E94AB0A6701F601808151
:10059000882311F1F7016F018191811115C0560176
:1005A000AE18BF081A141B0494F4AD8241E050E069
:1005B000BE016B5F7F4FC8010E94AB0AA501B70166
:1005C000C8010E94AB0A03C08E3229F7E8CF76013A
:1005D000FFEFEF1AFF0ADACF1D8241E050E0BE01C3
:1005E0006B5F7F4FC8010E94AB0AE12CFF24F3949C
:1005F000FC82EB8242E050E0BE016D5F7F4FC8019C
:100600000E94AB0AFC82EB8242E050E0BE016D5FCB
:100610007F4FC8010E94AB0A81E090E00F900F90DD
:100620000F900F900F90DF91CF911F910F91FF903E
:10063000EF90DF90CF90BF90AF9008954F925F9270
:100640006F927F928F929F92AF92BF92CF92DF92E2
:10065000EF92FF920F931F93CF93DF93CDB7DEB747
:1006600063970FB6F894DEBF0FBECDBF7C015B0170
:100670006A010E94B2172B013C018701085F1F4FDE
:100680004501A12CB12CC8010E944B0B181619066C
:1006900094F00E94B21764197509860997098616A5
:1006A0009706A806B906D0F062E370E080E090E01B
:1006B0000E94E117E8CFF70142815381648175817F
:1006C000808D918DA28DB38D481759076A077B07DE
:1006D00041F4848D958DC59721F406C08FEF9FEF6F
:1006E000FAC08EEF9FEFF7C0C8010E946F0A0C9707
:1006F000ECF04CE050E0BE016F5F7F4FC8010E94FC
:10070000E80A6C818B810E946F1C9A8B898BF701A0
:10071000E680F7806A8189810E946F1CE816F906DD
:1007200041F489899A8997FF04C009C08DEF9FEF32
:10073000D2C0C8010E94890A8CEF9FEFCCC08F7095
:100740009270892B31F0C8010E94890A8BEF9FEFCC
:10075000C2C068858F810E946F1C5C01009719F0F0
:10076000E12CF12C23C0C8010E94890A8AEF9FEF77
:10077000B2C041E050E0BE01635F7F4FC8010E94FC
:10078000E80A8D8581111AC08D858111F2CFC801CB
:100790000E94BF0AC8010E94BF0AC8010E94BF0A86
:1007A000C8010E94BF0AFFEFEF1AFF0A6E818D8118
:1007B0000E946F1CE816F906E0F20AC08D859FEFD3
:1007C000980F9D87882301F3C8010E94BF0AF6CFC6
:1007D000E12CF12C41E050E0BE016D5E7F4FC8017D
:1007E0000E94E80A8B89982F907C61F4882371F02D
:1007F0008B899FEF980F9B8B882341F0C8010E9443
:10080000BF0AF6CFC8010E94BF0A1B8A8B898111DB
:10081000E1CF42E050E0BE01615F7F4FC8010E941E
:10082000E80A42E050E0BE01635F7F4FC8010E94CA
:10083000E80AC8010E94BF0AC8010E94BF0AC80195
:100840000E94BF0AC8010E94BF0A42E050E0BE01F8
:100850006F5E7F4FC8010E94E80A8F8598898115D5
:10086000914029F48D859E858115914019F0812C48
:10087000912C16C089899A898115944031F0C8015C
:100880000E94890A87EF9FEF26C0B6016E5F7F4FF7
:1008900044E050E0C8010E94E80A81E090E01BC0FB
:1008A00089899A899827892798278816990638F47C
:1008B000C8010E94BF0A2FEF821A920AF1CF8FEF70
:1008C000E81AF80AEA14FB0409F084CFC8010E9470
:1008D000890A86EF9FEF63960FB6F894DEBF0FBECE
:1008E000CDBFDF91CF911F910F91FF90EF90DF90DF
:1008F000CF90BF90AF909F908F907F906F905F90C0
:100900004F9008958F929F92AF92BF92CF92DF92B5
:10091000EF92FF920F931F93CF93DF9300D000D0FD
:1009200000D0CDB7DEB78C015B016A010E943002B6
:100930004C01009709F05DC0F80142815381648148
:1009400075818091520490915304A0915404B09108
:100950005504481759076A077B0709F44EC00E94DF
:10096000B2177801F8E0EF0EF11C6F7077277C5F0B
:10097000C7010E941E0B813009F043C088E693E056
:100980009A838983F80182819381A481B5818B83C5
:100990009C83AD83BE8345E350E0BE016F5F7F4F14
:1009A000C7010E949F0A892B19F4812C912C1DC02C
:1009B000B501C8010E946E02892BB9F3C7010E94DC
:1009C000A70A892B91F333E0A32EB12CA60168E886
:1009D00073E1C8010E941E034C01F1E0AF1AB10897
:1009E00021F08F3F2FEF920789F3C7010E948A0AF7
:1009F00008C088248394912C04C09EEF892E9924EA
:100A00009A94C40126960FB6F894DEBF0FBECDBFF0
:100A1000DF91CF911F910F91FF90EF90DF90CF90DA
:100A2000BF90AF909F908F900895209192042223C1
:100A300099F03FB7F89420919204213059F42DB3E6
:100A4000209390044DB320919104209524232DBB35
:100A50003FBF02C0309390048CBD9DBD089580912E
:100A60009204882361F09FB7F894209192048091BA
:100A70009004213019F48DBB9FBF08958FBF089556
:100A800044E050E0BC0181E090E00C944C1144E063
:100A900050E0BC0185E090E00C944C1144E050E043
:100AA000BC018FE090E00C944C118F929F92AF921A
:100AB000BF92CF92DF92EF92FF920F931F93CF934B
:100AC000DF9300D0CDB7DEB74C016A01590180E851
:100AD00094E069837A830E94E41080E590E00E94AC
:100AE000150546E050E069817A8189E090E00E9436
:100AF0004C11C60102960E944E05C80102960E9442
:100B00004005C70102960E9447050E942F05F50186
:100B10004281538164817581F401428353836483EC
:100B200075830F900F90DF91CF911F910F91FF90E0
:100B3000EF90DF90CF90BF90AF909F908F900895EF
:100B40006F927F928F929F92AF92BF92CF92DF92DD
:100B5000EF92FF920F931F93CF93DF93CDB7DEB742
:100B60006E970FB6F894DEBF0FBECDBF6C015B0170
:100B70007A014901380100E02FEF4FEF6FEFCE010E
:100B800049960E94331B28E633E03A8329838B8DF4
:100B90009C8DAD8DBE8D8B839C83AD83BE8338874A
:100BA0002F83F30182819381A481B58189879A87FC
:100BB000AB87BC873E872D87F40182819381A48116
:100BC000B5818F87988BA98BBA8B3C8B2B8BF701C8
:100BD00042815381648175814D8B5E8B6F8B788FE1
:100BE000CE0101967C018E01095F1F4F9E01235F9C
:100BF0003F4FAE014D5E5F4FB501C6010E945505E6
:100C00006E960FB6F894DEBF0FBECDBFDF91CF91C9
:100C10001F910F91FF90EF90DF90CF90BF90AF901A
:100C20009F908F907F906F900895CF92DF92EF9278
:100C3000FF920F931F93CF93DF93CDB7DEB76897E3
:100C40000FB6F894DEBF0FBECDBF6B017901DA019C
:100C500012964D915D916D917C9115974D8B5E8BA8
:100C60006F8B788FA8E6B3E0BA83A98321E0288F41
:100C70000D891E892F89388D0B831C832D833E831C
:100C8000B887AF83F70102811381248135810987F9
:100C90001A872B873C87BE87AD874F87588B698B18
:100CA0007A8B8E010F5F1F4F9E01295F3F4FAE0170
:100CB000435F5F4FB6010E94A00568960FB6F89497
:100CC000DEBF0FBECDBFDF91CF911F910F91FF907F
:100CD000EF90DF90CF9008950F931F93CF93DF9302
:100CE000CDB7DEB762970FB6F894DEBF0FBECDBFAB
:100CF000DB01FA0142815381648175814F87588BF2
:100D0000698B7A8BE8E6F3E0FA83E98321E02A8BAA
:100D10000F85188929893A890B831C832D833E838B
:100D2000F887EF8349875A876B877C879E012F5FFF
:100D30003F4FAE01495F5F4FBD010E9415066296AD
:100D40000FB6F894DEBF0FBECDBFDF91CF911F91DC
:100D50000F910895CF93DF93EC010E94291B80E54A
:100D600090E00E941505BE016E5F7F4F44E050E0A9
:100D70008FE090E00E947D120E942F05CE01DF914E
:100D8000CF91089528E633E0FC0131832083FB01F5
:100D90004281538164817581FC0142835383648362
:100DA000758308950F9300E020E040E060E086E660
:100DB00094E00E94331B86E594E00F910C94291B6C
:100DC00081E086270895862F0895DC01ED91FC913E
:100DD000048CF58DE02D099591E089270895CF9336
:100DE000DF931F92CDB7DEB76983DC01ED91FC91F3
:100DF0000280F381E02D41E050E0BE016F5F7F4F44
:100E000009950F90DF91CF91089521E0FC01848531
:100E1000843009F420E0822F0895FC019485FB01C1
:100E20008485981303C081E0943009F480E008952C
:100E30000F931F93CF93DF93EC018A018C8584304D
:100E400021F00E94860E892B39F481E090E09B838B
:100E50008A8380E090E001C0C801DF91CF911F91AB
:100E60000F910895FC018485843011F00C947D0F5E
:100E700080E090E00895CF93DF931F92CDB7DEB767
:100E800041E050E0BE016F5F7F4FFC0184850E940E
:100E90001D0F181619061CF4898190E002C08FEF0F
:100EA0009FEF0F90DF91CF910895FC0184850C9402
:100EB0001D0F0F931F93CF93DF931F92CDB7DEB714
:100EC0008C01DC01ED91FC910480F581E02D099508
:100ED000892B51F0BE016F5F7F4FF80184850E941E
:100EE000A80F898190E002C08FEF9FEF0F90DF91F4
:100EF000CF911F910F910895FC0184850C94D70F19
:100F0000CF92DF92EF92FF920F931F93CF93DF93D5
:100F1000CDB7DEB7AF970FB6F894DEBF0FBECDBF2B
:100F20007C018B016A01CE0101960E94291BCE0132
:100F300009960E94310CCE018A960E94291B66E513
:100F400074E0CE0184960E94C206BE016C5D7F4FA4
:100F5000CE0101960E942302AE01465D5F4FB801AB
:100F6000CE0101960E94820481309105C1F4D7011F
:100F7000ED91FC910484F585E02D88E693E09DA336
:100F80008CA30CA51DA52EA53FA50EA31FA328A7C6
:100F900039A7A601BE016C5D7F4FC7010995AF96C9
:100FA0000FB6F894DEBF0FBECDBFDF91CF911F917A
:100FB0000F91FF90EF90DF90CF900895FC01262FC6
:100FC0001382128248EE53E060E070E04483558360
:100FD0006683778382E291E09183808324870895FA
:100FE000FC018485843011F00C94300D80E008956C
:100FF000DF92EF92FF920F931F93CF93DF93EC0159
:101000007B018A018C85843009F045C0D12C8D2D5F
:101010000E94300D811102C0DC8607C08B7F8831B1
:10102000D9F3D39484E0D812F2CF8C85843099F12F
:1010300020910A0130910B012F5F3F4F11F420E006
:1010400030EC30930B0120930A0140910A0150913A
:101050000B0120E061E00E94820DB7016E5F7F4FBF
:10106000A8018C850E94080E811103C084E08C8742
:1010700012C0CE010E94F007873151F061E070E0AC
:1010800080E090E00E94E117CE010E94F007ECCFD3
:1010900081E090E002C080E090E0DF91CF911F916D
:1010A0000F91FF90EF90DF900895CF92DF92EF9233
:1010B000FF92CF93DF93EC018C85843049F10E943D
:1010C000600E0E94B2176B017C01CE010E94F007F6
:1010D0008823A1F061E070E080E090E00E94E117D9
:1010E0000E94B2176C197D098E099F09683E7340F2
:1010F0008105910550F38C850E94580DEC85F0E038
:10110000EE0FFF1FE25AFB4F1182108284E08C87A2
:10111000DF91CF91FF90EF90DF90CF900895CF9324
:10112000DF93EC018C858430D1F0CE010E94F00772
:101130008431A9F0882399F0883189F08C3169F4E1
:10114000E881F9810480F581E02DCE01099521E047
:10115000892B09F420E0822F03C081E001C080E0E8
:10116000DF91CF9108950F9300E020E040E060E030
:101170008CE694E00E94331B0F910895CF93DF9388
:101180001F92CDB7DEB76983DC01ED91FC9102803F
:10119000F381E02D41E050E0BE016F5F7F4F099584
:1011A0000F90DF91CF910895EF92FF920F931F93CD
:1011B000CF93DF93CDB7DEB72D970FB6F894DEBF90
:1011C0000FBECDBF7C0100E010E0602FCE01019684
:1011D0000E94DE07CE0101960E94F007811116C021
:1011E000F7014481558120E061E0802F0E94820D4B
:1011F000802F0E94D60DF70184819581F801EE0FB2
:10120000FF1FE25AFB4F9183808305C00F5F1F4F82
:1012100004301105D1F62D960FB6F894DEBF0FBE3F
:10122000CDBFDF91CF911F910F91FF90EF90089567
:10123000FC011382128286E491E09183808375839E
:1012400064830895BF92CF92DF92EF92FF920F9343
:101250001F93CF93DF93CDB7DEB72D970FB6F894DA
:10126000DEBF0FBECDBF8C014EE5C42E44E0D42EB0
:10127000B12CE12CF12C6B2DCE0101960E94DE07E2
:10128000D6012D913D916D01F8018481958128173A
:101290003907B1F4CE0101960E94F007843169F05C
:1012A000CE0101960E94F0078C3151F4CE010196D7
:1012B0000E943207892B99F003C0EE24E394F12CAD
:1012C000B394F4E0BF12D7CFEF2871F4D801ED91B9
:1012D000FC910480F581E02DC801099505C0CE017F
:1012E00001960E945508ECCF2D960FB6F894DEBFFC
:1012F0000FBECDBFDF91CF911F910F91FF90EF9067
:10130000DF90CF90BF9008957F928F929F92AF927F
:10131000BF92CF92DF92EF92FF920F931F93CF93E2
:10132000DF93CDB7DEB72D970FB6F894DEBF0FBEB3
:10133000CDBF6C015B014A010E9422095EE5E52EEA
:1013400054E0F52E712C00E010E0672DCE010196DF
:101350000E94DE07F701219131917F01F60184811E
:1013600095812817390731F4CE0101960E94F007C4
:101370008731C9F07394F4E07F12E7CFC8012D964E
:101380000FB6F894DEBF0FBECDBFDF91CF911F9196
:101390000F91FF90EF90DF90CF90BF90AF909F9014
:1013A0008F907F900895A401B501CE0101960E940F
:1013B0001807080F191FDECFBF92CF92DF92EF926E
:1013C000FF920F931F93CF93DF93CDB7DEB72D9787
:1013D0000FB6F894DEBF0FBECDBF8C016B01CB0101
:1013E0000E9422096EE5E62E64E0F62EB12C6B2DEC
:1013F000CE0101960E94DE07F701219131917F0114
:10140000F601848195812817390751F5CE0101969F
:101410000E94F007873111F08C3111F5CE01019651
:101420000E943207892BE1F08B819C81F801938324
:1014300082838D819E81AF81B88584839583A683C5
:10144000B78349855A856B857C854087518762873C
:10145000738782E291E0918380838D85848708C0C1
:10146000B394F4E0BF12C3CF64E0C8010E94DE076A
:10147000C8012D960FB6F894DEBF0FBECDBFDF9129
:10148000CF911F910F91FF90EF90DF90CF90BF9081
:1014900008950F9300E020E040E060E082E794E0F0
:1014A0000E94331B0F910895DC01ED91FC91008C9B
:1014B000F18DE02D099428E633E0FC01318320838F
:1014C000FB014089518962897389FC0142835383FE
:1014D000648375830895FC01848995890895FC01CE
:1014E000818D928D0895CF93DF931F92CDB7DEB794
:1014F0006983DC01ED91FC910280F381E02D41E0F4
:1015000050E0BE016F5F7F4F09950F90DF91CF9143
:1015100008950895CF93DF93EC01888D843061F0B6
:101520000E94580DE88DF0E0EE0FFF1FE25AFB4FCE
:101530001182108284E0888FDF91CF910895FC01A1
:10154000178A168A6E5F7F4F808D0C941F10FC01E6
:10155000808D0C946510CF93DF93EC019A018E89F6
:101560009F89AB01BC01888D0E94D80F2E893F89CD
:10157000280F391F3F8B2E8BDF91CF9108950F934A
:101580001F93CF93DF931F92CDB7DEB78C01FC0181
:10159000818D928D892B59F041E050E0BE016F5F43
:1015A0007F4F808D0E941D0F181619061CF08FEFBB
:1015B0009FEF08C0F801818D928D0197928F818FE6
:1015C000898190E00F90DF91CF911F910F91089545
:1015D000CF93DF93EC01898D9A8D009719F48FEFEB
:1015E0009FEF10C04817590708F0AC01888D0E9482
:1015F0001D0F181619069CF7298D3A8D281B390BDB
:101600003A8F298FDF91CF910895CF93DF931F9267
:10161000CDB7DEB7FC01218D328D232B49F0BE0101
:101620006F5F7F4F808D0E94A80F898190E002C07C
:101630008FEF9FEF0F90DF91CF910895FF920F935F
:101640001F93CF93DF93EC018B01888D8430E1F4FD
:10165000F12C8F2D0E94300D811102C0F88E06C032
:101660008831E1F3F39484E0F812F3CF888D84306D
:1016700059F01D870C871A8E198E20E0A80162E0B0
:101680000E94820D81E001C080E0DF91CF911F9127
:101690000F91FF9008950F931F93CF93DF93CDB7D2
:1016A000DEB728970FB6F894DEBF0FBECDBF8C0112
:1016B000F801818D928D892B49F0D801ED91FC9133
:1016C0000680F781E02DC8010995F2CF808D0E9438
:1016D0007D0F1816190644F548E050E0BE016F5F13
:1016E0007F4FD80158968C910E941D0F181619062D
:1016F000ECF4BE016F5F7F4FC8010E960E943F1B46
:101700008D8190E0982F88272E81820F911DF801FE
:10171000958B848B8F8190E0982F88272885820F66
:10172000911D928F818F02C080E090E028960FB6C5
:10173000F894DEBF0FBECDBFDF91CF911F910F9107
:1017400008958F929F92AF92BF92CF92DF92EF92C5
:10175000FF920F931F93CF93DF9300D000D000D060
:10176000CDB7DEB78C017B014A01FC01808D84304E
:1017700009F063C073E0A72E74E0B72EC12CD12C02
:10178000C5010E947B11811103C0F801C08E0AC0FF
:101790008831D9F3FFEFCF1ADF0AB394E4E0CE1615
:1017A000D10471F7F801808D843009F446C096E0C9
:1017B000E8E1F1E0DE01119601900D929A95E1F7D2
:1017C000F70193819F779C8394819D8395819E836C
:1017D000B7016E5F7F4F90E0982F882744E050E07C
:1017E000845F9B4F0E944C11F801808D90E004961D
:1017F000F82EEE24692DC70140960E94C210682D74
:10180000C70141960E94C210F801808D90E0982F88
:10181000882746E050E0BE016F5F7F4F8A5F9B4F95
:101820000E944C11F801128E118E20E8A40162E092
:10183000808D0E94820D81E001C080E026960FB667
:10184000F894DEBF0FBECDBFDF91CF911F910F91F6
:10185000FF90EF90DF90CF90BF90AF909F908F90D0
:101860000895CF93DF93EC011B821A8248EE53E078
:1018700060E070E04C835D836E837F8380E591E060
:1018800099838883CE010E960E94291B84E0888F5D
:10189000DF91CF910895CF92DF92EF92FF920F9355
:1018A0001F93CF93DF93CDB7DEB7AF970FB6F89402
:1018B000DEBF0FBECDBF7C018B016A01CE01019658
:1018C0000E94291BCE0109960E94310CCE018A96F6
:1018D0000E94291B66E574E0CE0184960E94C20630
:1018E000BE016C5D7F4FCE0101960E942302AE01C6
:1018F000465D5F4FB801CE0101960E94820481309F
:101900009105C1F4D701ED91FC910088F189E02D9A
:1019100088E693E09DA38CA30CA51DA52EA53FA54D
:101920000EA31FA328A739A7A601BE016C5D7F4F98
:10193000C7010995AF960FB6F894DEBF0FBECDBFB5
:10194000DF91CF911F910F91FF90EF90DF90CF909B
:1019500008950F9300E020E040E060E088E794E025
:101960000E94331B0F910895CF92DF92EF92FF9266
:101970000F9330E0C12CF2E1DF2EFAE7EF2EF12CCD
:101980004C155D056E057F0540F4F694E794D794F9
:10199000C7943F5F3630A1F737E041E0432721117C
:1019A00002C050E701C050E5242F30E0359527955F
:1019B00023700C70202B252BFC0120834170418368
:1019C0000F91FF90EF90DF90CF90089590E0982FC7
:1019D000882744E050E0845F9B4F0C944C11282FE3
:1019E00030E02C5F3F4F922F8827860F971F0C9473
:1019F0007B1162E070E00C94EF0CFB01282F30E0CB
:101A00002C5F3F4F922F8827642F8E0F9F1F0C94BF
:101A1000C210CF93DF93C82FD62F472F64E070E01A
:101A20000E94FD0C4D2F65E070E08C2FDF91CF916F
:101A30000C94FD0C462F62E070E00C94FD0CCF93EB
:101A4000DF93C82FD62F472F60E170E00E94FD0C76
:101A50004D2F61E170E08C2FDF91CF910C94FD0C44
:101A60000F931F93CF93DF9300D01F92CDB7DEB7B4
:101A7000182F00E021E040E059E06DE370E0CE0176
:101A800001960E94B40C89819A810E94150563E039
:101A900070E0812F0E94EF0C8B830E942F058B81B9
:101AA0000F900F900F90DF91CF911F910F9108959C
:101AB0000F931F93CF93DF9300D0CDB7DEB7182FCE
:101AC00000E021E040E059E06DE370E0CE010196D6
:101AD0000E94B40C89819A810E94150540E150E072
:101AE000612F80E894E00E9445136FEF812F0E94E0
:101AF0001A0D0E942F050F900F90DF91CF911F912B
:101B00000F910895CF92DF92EF92FF920F931F9360
:101B1000CF93DF9300D0CDB7DEB7182FD62E7A0142
:101B2000C22E8FEF860F8530A8F5812F0E94580DA9
:101B300000E021E040E059E06DE370E0CE01019665
:101B40000E94B40C89819A810E9415054D2D4C2963
:101B500060E070E0812F0E94FD0CE114F10411F0AF
:101B6000B7010AC060917E0470917F046F5F7F4F60
:101B700070937F0460937E04812F0E94090D41E0E1
:101B800050E0612F80E894E00E9445130E942F05E9
:101B900081E001C080E00F900F90DF91CF911F9105
:101BA0000F91FF90EF90DF90CF9008950F931F93C8
:101BB000CF93DF9300D0CDB7DEB7182F00E021E040
:101BC00040E059E06DE370E0CE0101960E94B40C54
:101BD00089819A810E94150563E070E0812F0E943F
:101BE000EF0C833121F00E942F0580E00AC042E013
:101BF00050E0612F80E894E00E9445130E942F0579
:101C000081E00F900F90DF91CF911F910F91089578
:101C1000CF92DF92EF92FF920F931F93CF93DF93B8
:101C200000D0CDB7DEB7182F7B016A01FB018081A0
:101C30008F3F51F481818F3F99F482818F3F81F4EE
:101C400083818F3F69F430C081110AC0FB0181811B
:101C5000811106C08281811103C08381882321F113
:101C6000C114D10409F100E021E040E059E06DE346
:101C700070E0CE0101960E94B40C89819A810E9485
:101C80001505B701812F0E94E60CB601812F0E9435
:101C90001F0D44E050E0612F80E894E00E9445135E
:101CA0000E942F0581E001C080E00F900F90DF912E
:101CB000CF911F910F91FF90EF90DF90CF900895FB
:101CC0000F931F93CF93DF9300D0CDB7DEB7182FBC
:101CD00000E021E040E059E06DE370E0CE010196C4
:101CE0000E94B40C89819A810E94150548E050E059
:101CF000612F80E894E00E9445130E942F050F9009
:101D00000F90DF91CF911F910F910895BF92CF92C5
:101D1000DF92EF92FF920F931F93CF93DF9300D048
:101D20001F92CDB7DEB7B82E6B017A01413088E043
:101D3000580718F0E12C98E0F92E00E021E040E08F
:101D400059E06DE370E0CE0101960E94B40C8981E8
:101D50009A810E9415056B2D80E894E00E94B311D2
:101D60008C0163E070E08B2D0E94EF0C8B830E944E
:101D70002F058B81873111F08C3131F40E94671768
:101D80000E151F05D0F202C0E12CF12C00E021E07D
:101D900040E059E06DE370E0CE0101960E94B40C82
:101DA00089819A810E9415059701A6016B2D80E813
:101DB00094E00E94721240E250E06B2D80E894E0C3
:101DC0000E9445138B2D0E94F90C84FD22C063E014
:101DD00070E08B2D0E94EF0C811108C00E942F052E
:101DE0008B2D0E94580D80E090E01AC00E942F05B4
:101DF0000E94671700E021E040E059E06DE370E0E9
:101E0000CE0101960E94B40C89819A810E94150529
:101E1000D9CF60E18B2D0E941A0D0E942F05C701BA
:101E20000F900F900F90DF91CF911F910F91FF9026
:101E3000EF90DF90CF90BF900895AF92BF92CF9276
:101E4000DF92EF92FF920F931F93CF93DF9300D017
:101E5000CDB7DEB7182F5B016A0100E021E040E05A
:101E600059E06DE370E0CE0101960E94B40C8981C7
:101E70009A810E941505612F80E894E00E94E71185
:101E80007C010097A1F463E070E0812F0E94EF0CC9
:101E9000843119F1882309F121E030E08C3111F40B
:101EA00020E030E0EE24FF24E21AF30A16C0C81640
:101EB000D9060CF476011E141F047CF400E097018F
:101EC000A501612F80E894E00E94F51240E450E003
:101ED000612F80E894E00E9445130E942F05C701FE
:101EE0000F900F90DF91CF911F910F91FF90EF9086
:101EF000DF90CF90BF90AF9008950F931F93CF9333
:101F0000DF9300D000D0CDB7DEB7182F00E021E07E
:101F100040E059E06DE370E0CE0101960E94B40C00
:101F200089819A810E941505612F80E894E00E94C2
:101F3000E7118B839C830E942F058B819C810F90DE
:101F40000F900F900F90DF91CF911F910F910895F7
:101F5000EF92FF920F931F93CF93DF9300D0CDB7F3
:101F6000DEB7182F7B0100E021E040E059E06DE38F
:101F700070E0CE0101960E94B40C89819A810E9482
:101F8000150501E021E030E0A701612F80E894E031
:101F90000E94F5120E942F0581E090E00F900F90B3
:101FA000DF91CF911F910F91FF90EF9008950895C9
:101FB0009F92AF92BF92CF92DF92EF92FF920F93D8
:101FC0001F93CF93DF9300D0CDB7DEB7982E6B0170
:101FD0005A01790100E021E040E059E06DE370E052
:101FE000CE0101960E94B40C89819A810E94150548
:101FF000692D80E894E00E94B3118E159F0530F49E
:10200000692D80E894E00E94B3117C01870195015D
:10201000A601692D80E894E00E9403120E942F051A
:10202000C7010F900F90DF91CF911F910F91FF90FB
:10203000EF90DF90CF90BF90AF909F900895CF9298
:10204000DF92EF92FF920F931F93CF93DF9300D015
:10205000CDB7DEB7182F7B016A01FB0180818111AA
:1020600009C08181811106C08281811103C08381F1
:102070008823F1F0C114D104D9F000E021E040E060
:1020800059E06DE370E0CE0101960E94B40C8981A5
:102090009A810E941505B701812F0E94E60CB601B6
:1020A000812F0E941F0D0E942F0581E090E002C049
:1020B00080E090E00F900F90DF91CF911F910F91F2
:1020C000FF90EF90DF90CF9008950F931F93CF93E1
:1020D000DF9300D0CDB7DEB7182F00E021E040E05D
:1020E00059E06DE370E0CE0101960E94B40C898145
:1020F0009A810E94150540E250E0612F80E894E04B
:102100000E944513812F0E94F90C84FD21C0812F6C
:102110000E94F90C83FF09C068E1812F0E941A0D0B
:102120000E942F0580E090E01BC00E942F050E94B6
:10213000671700E021E040E059E06DE370E0CE0178
:1021400001960E94B40C89819A810E941505DACF0C
:1021500060E1812F0E941A0D0E942F0581E090E01E
:102160000F900F90DF91CF911F910F9108958EBD29
:1021700000000DB407FEFDCF8EB508952A9808958E
:102180002A9A08951F93CF93DF9300D0CDB7DEB77F
:10219000182F6A8399830E94BE1080EF0E94B710A7
:1021A0009981892F0E94B710812F0E94B7106A81F0
:1021B000862F0E94B7100E94C01081E00F900F90F0
:1021C000DF91CF911F910895CF93DF93EC016CE2E3
:1021D00071E080E090E00E94E1170E945513229A7E
:1021E00080919204882399F09FB7F894809192048B
:1021F000813059F48DB3809390042DB38091910474
:10220000809582238DBB9FBF02C09093900480E590
:102210008CBD1DBC60E880E090E00E94C21065E5C6
:102220008BE190E00E94C21065E58AE190E00E9497
:10223000C21080919204882361F09FB7F894209196
:10224000920480919004213019F48DBB9FBF01C08E
:102250008FBF80E090E49983888380E090E699873F
:10226000888780E098E49B838A8380E098E69B8758
:102270008A8780E090E59D838C8380E090E79D874E
:102280008C8780E098E59F838E8380E098E79F8726
:102290008E87DF91CF910895CF92DF92EF92FF92D8
:1022A0000F931F93CF93DF93EC017A018B016C01A5
:1022B000C40ED51ECC15DD05A1F00E94BE1080EF26
:1022C0000E94B7108D2F0E94B7108C2F0E94B7105C
:1022D0002196F80181918F010E94B7100E94C010D1
:1022E000E9CFC701DF91CF911F910F91FF90EF9040
:1022F000DF90CF9008951F93CF93DF931F92CDB7B8
:10230000DEB7182F99830E94BE108FE00E94B7108D
:102310009981892F0E94B710812F0E94B71080E009
:102320000E94B71089830E94C01089810F90DF91AD
:10233000CF911F9108951F93CF93DF93182F60E2E1
:1023400070E00E94EF0CC82FD0E061E270E0812FB6
:102350000E94EF0CDC2FCC279E01282BC901DF91B6
:10236000CF911F910895FF920F931F93CF93DF9307
:10237000F62EC0E0D0E08F2D0E949B118C010097BB
:1023800021F08F2D0E949B11EC01C017D10799F706
:10239000CE01DF91CF911F910F91FF9008951F9370
:1023A000CF93DF93182F66E270E00E94EF0CC82FE6
:1023B000D0E067E270E0812F0E94EF0CDC2FCC2789
:1023C0009E01282BC901DF91CF911F910895FF92A3
:1023D0000F931F93CF93DF93F62EC0E0D0E08F2DA5
:1023E0000E94CF118C01009721F08F2D0E94CF11F8
:1023F000EC01C017D10799F7CE01DF91CF911F9162
:102400000F91FF9008956F927F929F92AF92BF922B
:10241000CF92DF92EF92FF920F931F93CF93DF93B0
:102420001F92CDB7DEB7D82E962E3A01590164E23D
:1024300070E0892D99830E94EF0CE82EF12C65E263
:1024400070E0892D0E94EF0CFE2CEE24E82AE60CA9
:10245000F71C970137706D2C9981792E690C711CCE
:10246000690C711CD301ED91FC91E20FF31FC901BE
:10247000800F911F81309840A0F0C12C48E0D42EED
:10248000C21AD30AA601B501CF010E944C11A801BE
:102490004C195D09B5016C0D7D1DF30180819181A1
:1024A00003C0A801B501CF010E944C11E00EF11E3E
:1024B0004F2D64E270E0892D0E94FD0C4E2D65E2E7
:1024C00070E0892D0F90DF91CF911F910F91FF90B8
:1024D000EF90DF90CF90BF90AF909F907F906F90E4
:1024E0000C94FD0C0F931F9389019A0140E050E07A
:1024F0000E9403121F910F910895CF92DF92EF92E5
:10250000FF920F931F93CF93DF93EC017A018B011E
:102510006C01C40ED51ECC15DD05A9F00E94BE10BD
:102520008FE00E94B7108D2F0E94B7108C2F0E9451
:10253000B710219680E00E94B710F80181938F01B7
:102540000E94C010E8CFC701DF91CF911F910F917A
:10255000FF90EF90DF90CF900895AF92BF92CF920F
:10256000DF92EF92FF920F931F93CF93DF9300D0F0
:10257000CDB7DEB75A8349835901E981FA81F770F3
:102580007C01E60EF11CE60EF11CD70118968D9128
:102590009C9119978E0F9F1F98012E0F3F1F21307E
:1025A000384098F0C12C68E0D62ECE1ADF0AA6017A
:1025B000B5010E947D12A8014C195D09B5016C0D91
:1025C0007D1DF7018085918502C0A801B5010F909E
:1025D0000F90DF91CF911F910F91FF90EF90DF90BF
:1025E000CF90BF90AF900C947D128F929F92AF923C
:1025F000BF92CF92DF92EF92FF920F931F93CF93F0
:10260000DF936C01962E5A017901802E68E270E00A
:10261000892D0E94EF0CC82FD0E069E270E0892D6F
:102620000E94EF0CDC2FCC27C82B87019501AE014F
:10263000692DC6010E94AD1281101AC0CE0DDF1D9A
:102640004D2F68E270E0892D0E94FD0C4C2F69E24D
:1026500070E0892DDF91CF911F910F91FF90EF9046
:10266000DF90CF90BF90AF909F908F900C94FD0C17
:10267000DF91CF911F910F91FF90EF90DF90CF905E
:10268000BF90AF909F908F900895CF93C62F61E039
:1026900070E08C2F0E94FD0C61E070E08C2F0E9496
:1026A000EF0C8111F9CFCF910895CF93CFB7F89464
:1026B00080919304811127C0EAE9F0E08491E6E873
:1026C000F0E09491E82FF0E0EE0FFF1FE854FF4F89
:1026D000A591B4918C91892321F461E08AE00E9454
:1026E000A61861E08AE00E946D188CB580618CBDEF
:1026F0008CB580648CBD61E08DE00E946D1861E056
:102700008BE00E946D18809193048F5F80939304F7
:10271000CFBFCF9108950F931F93CF93DF93EC0119
:10272000662359F00E94B21769837A838B839C8356
:10273000DF91CF911F910F9108950E94B2170981E7
:102740001A812B813C81601B710B820B930B6233CE
:1027500071058105910530F763E070E080E090E05D
:102760000E94E117EACF60E00C948B13FC0113AADE
:1027700014AA15AA16AA1182128213821482411574
:1027800051056105710521F0CB01BA010C94E117E7
:102790000895FB01BA01A901DC01D296FC93EE93E6
:1027A000D19726E0CF010C94E8191F93CF93DF93C4
:1027B000EC01162F62E771E089A99AA90E94B51B66
:1027C0004AE050E0612F89A99AA90E94681C69E734
:1027D00071E089A99AA90E94B51B62E370E080E0CC
:1027E00090E0DF91CF911F910C94E1171F93CF934D
:1027F000DF93EC01162F8D81882389F189A99AA98D
:10280000DC01ED91FC910480F581E02D0995892B87
:10281000A9F307C02637310519F12835310509F428
:102820001D8289A99AA9DC01ED91FC910480F581B2
:10283000E02D09951816190694F489A99AA9DC01C6
:10284000ED91FC910680F781E02D09959C013327DD
:1028500023363105F9F6612FCE010E94D51383E6A8
:10286000DF91CF911F9108950F931F93CF93DF9323
:102870001F92CDB7DEB78C01662349F081E0F801E5
:10288000858360E0C80149830E94F6134981F801FD
:1028900045830F90DF91CF911F910F9108958AED9D
:1028A00094E00E94990060E0809116010E946D18EA
:1028B00061E0809112010C946D18DF92EF92FF920B
:1028C0000F931F93CF93DF93CDB7DEB72C970FB63F
:1028D000F894DEBF0FBECDBF65EF71E084EE96E0E9
:1028E0000E94DE1B1092CC041092CB0407EA15E084
:1028F0004AE0D42E8091D3069091D4069801275AAD
:102900003540281739070CF059C0F801E1908F01C4
:102910006E2D84EE96E00E94B71BFEE2EF1213C00C
:102920008091CB049091CC0401969093CC04809339
:10293000CB048091A5059091A60501969093A605DC
:102940008093A50541C0FF24E7FCF094C701C09720
:102950000A9780F6E091CB04F091CC04EE0FFF1FB4
:10296000E552FB4F80819181D89EB001D99E700DB8
:1029700011246E0D7F1D718360834AE0CE0107969E
:102980000E943C1DB701685E7D4FCE0101960E94FA
:10299000E21CBE01695F7F4FCE0101960E94941D2B
:1029A000BC0184EE96E00E94CC1BCE0101960E94F1
:1029B000741CCE0107960E94741C9CCF6DE172E0DE
:1029C00084EE96E00E94DE1B2C960FB6F894DEBFD4
:1029D0000FBECDBFDF91CF911F910F91FF90EF9070
:1029E000DF9008954091A5055091A60526E230E0BC
:1029F0006BED74E089ED94E00C94E801CF93DF93E4
:102A0000EC010E943207892B21F0CE010E943B0786
:102A100001C080E2DF91CF910895BF92CF92DF9203
:102A2000EF92FF920F931F93CF93DF93CDB7DEB753
:102A30002D970FB6F894DEBF0FBECDBF8C0168E6B0
:102A400072E084EE96E00E94DE1B1092D406109293
:102A5000D306D12C50E2B52E60E2C62E72E2E72EEC
:102A600071E0F72EC8010E948F08813039F48091FF
:102A7000D3069091D4068C329140B4F068E872E0AD
:102A800084EE96E00E94DE1B2D960FB6F894DEBF12
:102A90000FBECDBFDF91CF911F910F91FF90EF90AF
:102AA000DF90CF90BF900895F801828193819C833D
:102AB0008B8384819581A681B7818D839E83AF832B
:102AC000B887408551856285738549875A876B87AA
:102AD0007C87FA82E98284858D87CE0101960E94E7
:102AE000FE14D11009C029E6B21212C092E7C91231
:102AF0000FC08D3369F419C08632D1F4BFCFE09195
:102B0000D306F091D406E955FA4F80838C2DCB2C57
:102B10002091D3063091D4062F5F3F4F3093D406D7
:102B20002093D306BC2CC82E9DCFDD24D3949ACFFE
:102B30008A3029F768E772E084EE96E00E94DE1B97
:102B40009DCFAF92BF92CF92DF92EF92FF920F9301
:102B50001F93CF93DF93CDB7DEB72C970FB6F894C2
:102B6000DEBF0FBECDBF8C016091A5057091A6059B
:102B70004AE0CE0107960E94101D68E972E0CE017E
:102B800001960E94E21CBE01695F7F4FCE01019653
:102B90000E94941DBC0184EE96E00E94CC1BCE01E5
:102BA00001960E94741CCE0107960E94741C62EA72
:102BB00072E0C8010E94DE1B62EB72E0C8010E9455
:102BC000DE1B6AEC72E0C8010E94DE1BC8010E9495
:102BD000C81B6CED72E0C8010E94DE1B6CEE72E057
:102BE000C8010E94DE1B63EF72E0C8010E94DE1B79
:102BF000EBEDCE2EE4E0DE2EE12CF12C8091A5054C
:102C00009091A605E816F9065CF55601F60161916A
:102C100071916F014AE0CE0101960E943C1DBE01F8
:102C20006F5F7F4F84EE96E00E94CC1BCE01019631
:102C30000E94741CF501608171814AE0CE01019609
:102C40000E943C1DBE016F5F7F4FC8010E94CC1BDC
:102C5000CE0101960E94741CFFEFEF1AFF0ACECF3F
:102C60006AEF72E0C8010E94DE1B65E073E0C801F4
:102C70000E94DE1B6DE073E0C8010E94DE1B81E054
:102C800090E00E94F2142C960FB6F894DEBF0FBEAF
:102C9000CDBFDF91CF911F910F91FF90EF90DF900B
:102CA000CF90BF90AF9008950F931F93CF93DF9372
:102CB000CDB7DEB76A970FB6F894DEBF0FBECDBFB3
:102CC0006DEC74E0CE010E960E94DC09CE010E96EA
:102CD0000E940507882309F456C065E173E084EE7D
:102CE00096E00E94DE1B1092CC041092CB048889DF
:102CF00099899C838B838A899B89AC89BD898D83C3
:102D00009E83AF83B8878E899F89A88DB98D898767
:102D10009A87AB87BC8702E211E01A8309838A8D08
:102D20008D87CE0101960E940D150E945D1461E011
:102D300070E080E090E00E94E117888999899C8387
:102D40008B838A899B89AC89BD898D839E83AF8360
:102D5000B8878E899F89A88DB98D89879A87AB8717
:102D6000BC871A8309838A8D8D87CE0101960E94C4
:102D7000A115CE010E960E94550860E273E084EE24
:102D800096E00E94DE1B6A960FB6F894DEBF0FBE77
:102D9000CDBFDF91CF911F910F9108950C945416E0
:102DA0000F9300E020E040E060E085ED96E00E94B7
:102DB000331B60911401709115018AED94E00E941B
:102DC000940002E821E048EA60EC83ED94E00E9480
:102DD000331B60E570E08DEC94E00F910C941809C2
:102DE000CF93DF9300D000D000D0CDB7DEB788E618
:102DF00093E09A8389838091D5049091D604A09121
:102E0000D704B091D8048B839C83AD83BE83AE017D
:102E10004F5F5F4F6CE071E086E594E00E946C06C6
:102E20008DEC94E00E94D40864E373E084EE96E0B5
:102E30000E94B51B66E574E0CE0101960E94AA06C9
:102E4000BE016F5F7F4F84EE96E00E94F01B2696D6
:102E50000FB6F894DEBF0FBECDBFDF91CF910895BE
:102E600040ED57E060E070E084E994E00E94B61322
:102E700020E835E240E050E064EE76E084E994E05A
:102E80000E94C91384E994E00E94B31362E473E0E2
:102E90008091C5049091C6040E94B51B6AE070E061
:102EA00080E090E00E94E11741E060E084E994E076
:102EB0000E94341426E040E855E260E070E084EEC1
:102EC00096E00E94E8190E94F0160C944F140895A1
:102ED0001F920F920FB60F9211242F933F938F934F
:102EE0009F93AF93BF938091DC069091DD06A091F4
:102EF000DE06B091DF063091DB0623E0230F2D378D
:102F000020F40196A11DB11D05C026E8230F0296ED
:102F1000A11DB11D2093DB068093DC069093DD0696
:102F2000A093DE06B093DF068091E0069091E10663
:102F3000A091E206B091E3060196A11DB11D809318
:102F4000E0069093E106A093E206B093E306BF91FA
:102F5000AF919F918F913F912F910F900FBE0F9046
:102F60001F9018952FB7F8946091DC067091DD06DC
:102F70008091DE069091DF062FBF08953FB7F89449
:102F80008091E0069091E106A091E206B091E306FF
:102F900026B5A89B05C02F3F19F00196A11DB11DB4
:102FA0003FBF6627782F892F9A2F620F711D811DD1
:102FB000911D42E0660F771F881F991F4A95D1F730
:102FC0000895CF92DF92EF92FF92CF93DF936B0140
:102FD0007C010E94BE17EB01C114D104E104F1048D
:102FE00089F00E9467170E94BE176C1B7D0B683E1C
:102FF000734090F381E0C81AD108E108F108C85184
:10300000DC4FEACFDF91CF91FF90EF90DF90CF9030
:103010000895789484B5826084BD84B5816084BD50
:1030200085B5826085BD85B5816085BDEEE6F0E041
:10303000808181608083E1E8F0E01082808182609D
:103040008083808181608083E0E8F0E0808181601E
:103050008083E1EBF0E0808184608083E0EBF0E04E
:10306000808181608083EAE7F0E0808184608083F2
:10307000808182608083808181608083808180689C
:1030800080831092C1000895833081F028F481304C
:1030900099F08230A1F008958730A9F08830B9F016
:1030A0008430D1F4809180008F7D03C080918000B6
:1030B0008F7780938000089584B58F7702C084B5A0
:1030C0008F7D84BD08958091B0008F7703C080917B
:1030D000B0008F7D8093B0000895CF93DF9390E090
:1030E000FC01E458FF4F2491FC01E057FF4F84910D
:1030F000882349F190E0880F991FFC01E854FF4FA5
:10310000A591B49182559F4FFC01C591D4919FB771
:10311000611108C0F8948C91209582238C9388814A
:1031200082230AC0623051F4F8948C91322F30958A
:1031300083238C938881822B888304C0F8948C919C
:10314000822B8C939FBFDF91CF9108950F931F9394
:10315000CF93DF931F92CDB7DEB7282F30E0F90170
:10316000E859FF4F8491F901E458FF4F1491F90198
:10317000E057FF4F04910023C9F0882321F06983B1
:103180000E9444186981E02FF0E0EE0FFF1FE25526
:10319000FF4FA591B4919FB7F8948C91611103C032
:1031A0001095812301C0812B8C939FBF0F90DF91DD
:1031B000CF911F910F910895CF93DF93282F30E087
:1031C000F901E859FF4F8491F901E458FF4FD49178
:1031D000F901E057FF4FC491CC2391F081110E9477
:1031E0004418EC2FF0E0EE0FFF1FEC55FF4FA591B8
:1031F000B4912C912D2381E090E021F480E002C075
:1032000080E090E0DF91CF910895FC01818D228DC7
:1032100090E0805C9F4F821B91098F7399270895DE
:10322000FC01918D828D981731F0828DE80FF11D90
:10323000858D90E008958FEF9FEF0895FC01918DAB
:10324000828D981761F0828DDF01A80FB11D5D9608
:103250008C91928D9F5F9F73928F90E008958FEF76
:103260009FEF089582EA9AE1892B49F080E090E08F
:10327000892B29F00E94A21A81110C940000089554
:10328000FC01848DDF01A80FB11DA35ABF4F2C9103
:10329000848D90E001968F739927848FA689B789D2
:1032A0002C93A089B1898C9180648C93938D848DAB
:1032B000981306C00288F389E02D80818F7D80837A
:1032C0000895CF93DF93EC01888D8823C9F0EA89B4
:1032D000FB89808185FD05C0A889B9898C9186FD0F
:1032E0000FC00FB607FCF5CF808185FFF2CFA8890C
:1032F000B9898C9185FFEDCFCE010E944019E7CFAF
:10330000DF91CF910895CF92DF92FF920F931F9399
:10331000CF93DF931F92CDB7DEB76C0181E0D6016A
:1033200058968C9358975B969C915B975C968C9182
:103330005C97981307C05096ED91FC91519780814E
:1033400085FD2EC0F601038D10E00F5F1F4F0F7338
:103350001127F02EF601848DF81211C00FB607FC6C
:10336000F9CFD6015096ED91FC915197808185FF60
:10337000F1CFC60169830E9440196981EBCF838D2B
:10338000E80FF11DE35AFF4F6083D6015B960C9363
:103390005B975296ED91FC915397808180620CC0AF
:1033A000D6015696ED91FC91579760835096ED911A
:1033B000FC91519780818064808381E090E00F9040
:1033C000DF91CF911F910F91FF90DF90CF900895E3
:1033D000BF92CF92DF92EF92FF92CF93DF93EC01F7
:1033E0006A017B01B22EE889F98982E08083411568
:1033F00081EE580761057105A1F060E079E08DE389
:1034000090E0A70196010E94A71D215031094109B2
:1034100051095695479537952795211580E138072D
:1034200098F0E889F989108260E874E88EE190E00C
:10343000A70196010E94A71D215031094109510998
:103440005695479537952795EC85FD853083EE8514
:10345000FF852083188EEC89FD89B082EA89FB897B
:10346000808180618083EA89FB8980818860808394
:10347000EA89FB89808180688083EA89FB89808171
:103480008F7D8083DF91CF91FF90EF90DF90CF9081
:10349000BF9008951F920F920FB60F9211242F9391
:1034A0008F939F93EF93FF93E091F406F091F506CD
:1034B0008081E091FA06F091FB0682FD12C09081B6
:1034C0008091FD068F5F8F732091FE06821751F069
:1034D000E091FD06F0E0EC51F94F958F8093FD06E9
:1034E00001C08081FF91EF919F918F912F910F905B
:1034F0000FBE0F901F9018951F920F920FB60F924C
:1035000011242F933F934F935F936F937F938F93E8
:103510009F93AF93BF93EF93FF9384EE96E00E9447
:103520004019FF91EF91BF91AF919F918F917F9142
:103530006F915F914F913F912F910F900FBE0F9020
:103540001F90189584EE96E00E94051921E0892BC2
:1035500009F420E0822F08951092E7061092E60603
:1035600088EE93E0A0E0B0E08093E8069093E9064F
:10357000A093EA06B093EB0688E593E09093E50606
:103580008093E40685EC90E09093F1068093F0063A
:1035900084EC90E09093F3068093F20680EC90E048
:1035A0009093F5068093F40681EC90E09093F706F3
:1035B0008093F60682EC90E09093F9068093F806EB
:1035C00086EC90E09093FB068093FA061092FD063D
:1035D0001092FE061092FF06109200070895AF9217
:1035E000BF92CF92DF92EF92FF920F931F93CF93F0
:1035F000DF936C017B01C0E0D0E000E010E0F60159
:10360000EC0FFD1F4AE050E06281C7010E94681C78
:103610005C016EE2C7010E94B71B8A0D9B1D080F5B
:10362000191F2196C330D10551F74AE050E0F60149
:103630006581C7010E94681C800F911FDF91CF91A7
:103640001F910F91FF90EF90DF90CF90BF90AF90C0
:10365000089528E633E0FC0131832083128213822F
:103660001482158208950F93FC0188E693E09183FC
:10367000808362834383248305830F910895FB0134
:103680004081518162817381FC0142835383648351
:103690007583089588E693E090938207809381076D
:1036A0001092830710928407109285071092860764
:1036B000089508950E9409180E94591B0E9430170E
:1036C000C2E3D9E10E94CE162097E1F30E9432199D
:1036D000F9CFCF92DF92EF92FF920F931F93CF9388
:1036E000DF937C016A01EB0100E010E00C151D0581
:1036F00071F06991D701ED91FC910190F081E02D7D
:10370000C7010995892B19F00F5F1F4FEFCFC80133
:10371000DF91CF911F910F91FF90EF90DF90CF90AD
:1037200008956115710581F0DB010D900020E9F726
:10373000AD0141505109461B570BDC01ED91FC9145
:103740000280F381E02D099480E090E00895DC018F
:10375000ED91FC91DB0114964D915C9115976D9163
:103760007C910280F381E02D09940C94911BDC0183
:10377000ED91FC910190F081E02D0994DB01ED9138
:10378000FC9111970190F081E02DBC01CD010994CD
:103790006FE771E00C94911B0F931F93CF93DF930E
:1037A000EC010E94A71B8C01CE010E94C81B800F58
:1037B000911FDF91CF911F910F9108950F931F9348
:1037C000CF93DF93EC010E94911B8C01CE010E94EC
:1037D000C81B800F911FDF91CF911F910F9108950A
:1037E0000F931F93CF93DF93EC010E94BE1B8C01BC
:1037F000CE010E94C81B800F911FDF91CF911F91B6
:103800000F9108958F929F92AF92BF92CF92DF92C5
:10381000EF92FF920F931F93CF93DF93CDB7DEB755
:10382000A1970FB6F894DEBF0FBECDBF7C01C42EAA
:10383000E52FCB01D22E19A221E02D1510F02AE0A0
:10384000D22E8E010F5D1F4F8D2C912CA12CB12CEF
:103850006C2D7E2FA50194010E94A71D8C2DD29E58
:1038600080191124015011098A3014F4805D01C0BF
:10387000895CF8018083211531054105510521F04E
:10388000C22EE32FCA01E4CFB801C7010E94911BE9
:10389000A1960FB6F894DEBF0FBECDBFDF91CF91DA
:1038A0001F910F91FF90EF90DF90CF90BF90AF905E
:1038B0009F908F9008952115310541F4DC01ED9121
:1038C000FC910190F081E02D642F09940C94021C6E
:1038D0009A01462F50E060E070E00C945B1C70E0B1
:1038E0009B01382BC9010895FC01808191810C94C2
:1038F000861ECF93DF93EC0188819981009711F0A8
:103900000E94861E198218821D821C821B821A82C6
:10391000DF91CF9108950F931F93CF93DF93EC0125
:103920008B016F5F7F4F888199810E94151F0097DF
:1039300031F0998388831B830A8381E001C080E092
:10394000DF91CF911F910F910895CF93DF93EC01F9
:1039500088819981892B29F08A819B818617970715
:1039600060F4CE010E948B1C882341F08C819D81E4
:10397000892B19F4E881F981108281E0DF91CF91E0
:103980000895EF92FF920F931F93CF93DF93EC0173
:103990007B018A01BA010E94A51C811104C0CE01DD
:1039A0000E94791C07C01D830C83B701888199810F
:1039B0000E94E81FCE01DF91CF911F910F91FF90E0
:1039C000EF900895FC0111821082138212821582F9
:1039D00014826115710559F0FB0101900020E9F78F
:1039E000AF0141505109461B570B0C94C11C08955F
:1039F000CF93DF93EC016115710561F0FB0101903C
:103A00000020E9F7AF0141505109461B570B0E94B6
:103A1000C11C02C00E94791CCE01DF91CF91089594
:103A20000F931F93CF93DF93CDB7DEB762970FB697
:103A3000F894DEBF0FBECDBF8C01CB01F80111821F
:103A40001082138212821582148250E0BE016F5FD1
:103A50007F4F0E94EF1FBE016F5F7F4FC8010E9422
:103A6000F81C62960FB6F894DEBF0FBECDBFDF9193
:103A7000CF911F910F9108950F931F93CF93DF93D1
:103A8000CDB7DEB761970FB6F894DEBF0FBECDBFDE
:103A90008C01CB01F80111821082138212821582EF
:103AA000148250E0BE016F5F7F4F0E940520BE016F
:103AB0006F5F7F4FC8010E94F81C61960FB6F894A3
:103AC000DEBF0FBECDBFDF91CF911F910F91089543
:103AD000EF92FF920F931F93CF93DF93EC017B0143
:103AE0000C811D816115710511F480E016C041152E
:103AF000510591F0040F151FB8010E94A51C8823E1
:103B0000A1F3288139818C819D81B701820F931F98
:103B10000E94E81F1D830C8381E0DF91CF911F91EC
:103B20000F91FF90EF900895CF93DF93EC01FB018D
:103B300044815581608171810E94681D811103C09B
:103B4000CE010E94791CCE01DF91CF910895A1E2B0
:103B50001A2EAA1BBB1BFD010DC0AA1FBB1FEE1F07
:103B6000FF1FA217B307E407F50720F0A21BB30B52
:103B7000E40BF50B661F771F881F991F1A9469F7CE
:103B800060957095809590959B01AC01BD01CF012A
:103B90000895052E97FB1EF400940E94E01D57FD2A
:103BA00007D00E94A71D07FC03D04EF40C94E01D23
:103BB00050954095309521953F4F4F4F5F4F089559
:103BC00090958095709561957F4F8F4F9F4F089589
:103BD000EE0FFF1F0590F491E02D0994CF93DF9332
:103BE0008230910510F482E090E0E0918907F09135
:103BF0008A0720E030E0A0E0B0E0309739F1408162
:103C0000518148175907B8F04817590771F4828154
:103C10009381109729F013969C938E9312972CC042
:103C200090938A078093890727C02115310531F0C9
:103C30004217530718F0A901DB0101C0EF019A01F7
:103C4000BD01DF010280F381E02DD7CF21153105C1
:103C5000F9F0281B390B2430310580F48A819B81CF
:103C60006115710521F0FB019383828304C0909359
:103C70008A0780938907FE01329644C0FE01E20F55
:103C8000F31F8193919322503109398328833AC0DD
:103C90002091870730918807232B41F4209102015E
:103CA000309103013093880720938707209100010A
:103CB000309101012115310541F42DB73EB74091F6
:103CC000040150910501241B350BE0918707F09109
:103CD0008807E217F307A0F42E1B3F0B28173907BC
:103CE00078F0AC014E5F5F4F2417350748F04E0F58
:103CF0005F1F50938807409387078193919302C079
:103D0000E0E0F0E0CF01DF91CF910895CF93DF9312
:103D1000009709F487C0FC01329713821282C09188
:103D20008907D0918A07209781F420813181280F5B
:103D3000391F80918707909188078217930779F53B
:103D4000F0938807E09387076DC0DE0120E030E044
:103D5000AE17BF0750F412964D915C9113979D01D9
:103D60004115510509F1DA01F3CFB383A2834081F4
:103D70005181840F951F8A179B0771F48D919C9137
:103D80001197840F951F02969183808312968D91CF
:103D90009C911397938382832115310529F4F09325
:103DA0008A07E09389073EC0D9011396FC93EE93EE
:103DB00012974D915D91A40FB51FEA17FB0779F497
:103DC00080819181840F951F0296D90111969C9351
:103DD0008E938281938113969C938E931297E0E049
:103DE000F0E08A819B81009719F0FE01EC01F9CF88
:103DF000CE01029628813981820F931F2091870777
:103E0000309188072817390769F4309729F4109200
:103E10008A071092890702C013821282D093880702
:103E2000C0938707DF91CF910895A0E0B0E0EBE168
:103E3000FFE10C943E20EC01CB01209719F40E9485
:103E4000EE1DB8C0FE01E60FF71F9E01225031099A
:103E5000E217F30708F4ACC0D9010D911C9111973A
:103E600006171707B8F00530110508F49FC0A80120
:103E7000445051094617570708F498C002501109D9
:103E8000061B170B019311936D937C93CF010E9436
:103E9000861E8CC05B01A01AB10A4E01800E911ED5
:103EA000A0918907B0918A07612C712C60E070E0C5
:103EB000109709F449C0A815B905C9F5ED90FC9013
:103EC0001197670142E0C40ED11CCA14DB0478F1DB
:103ED00047018A189B08640142E0C40ED11C129667
:103EE000BC9012971396AC91B5E0CB16D10440F07C
:103EF000B282A38391828082D9018D939C9309C061
:103F00000E5F1F4F0E0D1F1DF90111830083EB2D56
:103F1000FA2F6115710531F0DB011396FC93EE93D6
:103F2000129744C0F0938A07E09389073FC06D91D0
:103F30007C9111976616770608F43B01BD01129635
:103F40000D90BC91A02DB4CF609187077091880728
:103F500068157905E9F468167906D0F440910001F6
:103F6000509101014115510541F44DB75EB7609183
:103F7000040170910501461B570BE417F507C0F4C7
:103F8000F0938807E0938707F901918380830EC03F
:103F90000E94EE1D7C01009759F0A801BE010E940D
:103FA000DF1FCE010E94861EC70104C0CE0102C0E1
:103FB00080E090E0CDB7DEB7EEE00C945A20FB0134
:103FC000DC0102C001900D9241505040D8F7089595
:103FD000FB01DC0101900D920020E1F708954532CC
:103FE000510520F4423010F00C94FA1FFB011082AE
:103FF000CB010895BB274A3031F4992322F4BDE266
:10400000909581959F4F0C9411204532510520F4D5
:10401000423010F00C941020FB011082CB01089567
:10402000BB27FB015527AA27880F991FAA1FA41792
:1040300010F0A41B83955051B9F7A05DAA3308F086
:10404000A95DA193009779F7B111B1931192CB01BA
:104050000C942A20DC01FC01672F71917723E1F792
:10406000329704C07C916D9370836291AE17BF0745
:10407000C8F308952F923F924F925F926F927F9272
:104080008F929F92AF92BF92CF92DF92EF92FF9268
:104090000F931F93CF93DF93CDB7DEB7CA1BDB0B14
:1040A0000FB6F894DEBF0FBECDBF09942A883988B9
:1040B00048885F846E847D848C849B84AA84B984C0
:1040C000C884DF80EE80FD800C811B81AA81B981CC
:1040D000CE0FD11D0FB6F894DEBF0FBECDBFED01E0
:0640E0000895F894FFCFE3
:1040E60000008B0780000100000000C0DEADBEEFBF
:1040F600FEED0D000600070001005E000000000056
:104106000000EF06180732073B0759077C07F80738
:104116008007550755088F080507E006E3060D07D3
:10412600E50600000000BE088409D408000000006F
:10413600730AAB0A6F0ABF0A050B890A1E0B8A0AA5
:104146009F0A4B0CA70A4B0BE80A540A5B0A6B0A38
:10415600A10B564D4450435F005F564D4450430DEE
:104166000A004572726F723A20417474656D7074FC
:1041760020746F20736574206120726561642D6FF1
:104186006E6C79207661726961626C65206F72204F
:10419600646174612074797065206E6F7420737524
:1041A60070706F727465640D0A0052656365697696
:1041B600656420756E6B6E6F776E20636F64652C19
:1041C60020736176696E67206173207261770020C3
:1041D6006D0020730028732920636F6E76657274F4
:1041E60043757272656E7452657175657374546F3A
:1041F600526177436F646500202D3E2000286529B3
:1042060020636F6E7665727443757272656E745252
:10421600657175657374546F526177436F64650099
:1042260052656C656173656400507265737365648D
:1042360020622C2073656E64696E670028652920EC
:104246006C6F6F7049724200287329207265616431
:104256005265717565737400656E64206F66206CB7
:10426600696E652068697400286529207265616435
:1042760052657175657374006472617748746D6C0C
:104286002000485454502F312E3120323030204FE8
:104296004B00436F6E74656E742D547970653A20C9
:1042A600746578742F68746D6C00436F6E6E656309
:1042B60074696F6E3A20636C6F7365003C21444FDE
:1042C60043545950452048544D4C3E003C68746D4B
:1042D6006C3E003C626F64793E00646F6E653C62C2
:1042E60072202F3E003C2F626F64793E003C2F689F
:1042F600746D6C3E006E657720636C69656E740044
:10430600636C69656E7420646973636F6E6E656352
:1043160074656400736572766572206973206174D2
:104326002000564D4450565F317C315F564D445007
:10433600560D0A00000000008319691B05191E1995
:104346001019611900000000EF1A6E616E00696EA7
:0843560066006F7666002E0080
:00000001FF
